:020000040800F2
:1000000088060020B5010008310C0008610B0008CB
:100010002D0C0008BD020008450C0008000000007F
:10002000000000000000000000000000390C000883
:10003000C102000800000000350C00083D0C00085B
:10004000CF010008CF010008CF010008CF01000850
:10005000CF010008CF010008CF010008CF01000840
:10006000CF010008CF010008CF010008CF01000830
:10007000CF010008CF010008CF010008CF01000820
:10008000CF010008CF010008CF010008CF01000810
:10009000CF010008CF010008CF010008CF01000800
:1000A000CF010008CF010008CF010008CF010008F0
:1000B000CF010008CF010008CF010008CF010008E0
:1000C000CF010008CF010008CF010008CF010008D0
:1000D000CF010008CF010008CF010008CF010008C0
:1000E000CF010008CF010008CF01000800F002F89E
:1000F00000F050F814A696E8000CB244B344DA4578
:1001000001D100F047F8BAE80F000FA696E83000DA
:10011000A5EB040504EB0607AAEB0704A7F101070A
:100120004FEA15154FEA3414A4F10104AC4201D38F
:1001300000F030F813F0010F18BFFB1A43F0010371
:1001400000F001F8DBE71847B80B0000D80B0000FF
:10015000103A24BF78C878C1FAD8520724BF30C8F3
:1001600030C144BF04680C60704700007047000055
:100170000023002400250026103A28BF78C1FBD8B0
:10018000520728BF30C148BF0B6070471FB51FBD65
:1001900010B510BD00F058F81146FFF7F7FF00F05A
:1001A00053FD00F076F803B4FFF7F2FF03BC00F054
:1001B0007DF800000948804709480047FEE7FEE750
:1001C000FEE7FEE7FEE7FEE7FEE7FEE7FEE7FEE707
:1001D00004480549054A064B70470000410C0008D9
:1001E000ED0000088800002088060020880200201A
:1001F000880200204FF0000200B513469446964650
:10020000203922BFA0E80C50A0E80C50B1F1200129
:10021000BFF4F7AF090728BFA0E80C5048BF0CC0D7
:100220005DF804EB890028BF40F8042B08BF704735
:1002300048BF20F8022B11F0804F18BF00F8012BA7
:100240007047704770477047754600F02BF8AE4610
:1002500005006946534620F00700854618B020B5D2
:10026000FFF7B6FFBDE820404FF000064FF0000753
:100270004FF000084FF0000BAC46ACE8C009ACE80A
:10028000C009ACE8C009ACE8C00921F007018D46FF
:10029000704710B50446AFF300802046BDE810401B
:1002A000FFF781BF00487047100000200149182067
:1002B000ABBEFEE72600020070470000FEE700002C
:1002C000704700002DE9F04F82B00E68002E00F05C
:1002D000F68041F20042C4F20102042340F2004ED3
:1002E000904208BF03234FF6FF7CC4F2010E009337
:1002F00000240123C1F2100C4FF0000A4FF0000956
:1003000043E0012704F00C030F229A402BEA02027B
:1003100007FA03F34FEA9A051A4346F825204E6878
:1003200040F20C45F202DEF8082054BF22EA08022F
:1003300042EA0802C4F20105CEF808202A68B30296
:1003400054BF22EA080242EA08022A60B303DEF838
:10035000042054BF22EA080242EA0802F303CEF85E
:100360000420DEF800204FF0010354BF22EA080207
:1003700042EA0802CEF800200E680AF1010A36FAB5
:100380000AF204F1040400F09A8003FA0AFB16EA68
:100390000B08F1D04E68664510DC122E50D8DFE80D
:1003A00006F0330A41454F4F4F4F4F4F4F4F4F4F7E
:1003B0004F4F4F484C00D1F80C9041E04FF6FF7280
:1003C000C1F2210296420FDC0022C1F211029642D4
:1003D0001AD00022C1F21202964215D00022C1F2B8
:1003E0002102964210D02BE00022C1F22202964256
:1003F0000AD00022C1F23102964205D00022C1F299
:10040000320296421CD100BF8A6842B1012A14BF51
:10041000C0F814B0C0F810B04FF0080910E04FF069
:1004200004090DE0CA6802F1080909E04FF000096B
:1004300006E0CA6802F1040902E0CA6802F10C0988
:1004400022460646B8F5807F24BF203A0436376836
:100450000F25954027EA050509FA02F22A43326082
:10046000CA79D2067FF588AF41F21803C4F20203BD
:100470001A68AEF57E7642F001021A601A6802F040
:1004800001020192019A2AF0030256F802B040F6E6
:100490000002C4F2010290420FD040F60042C4F2C2
:1004A000010290423FF42DAF41F20002C4F201027A
:1004B000009F904208BF022724E7002722E702B0EE
:1004C000BDE8F08F8068084018BF01207047000029
:1004D000002A08BF090401617047000040F2800053
:1004E000C2F200000068704740F2040040F2800150
:1004F000C2F20000C2F2000100780A6810440860ED
:100500007047000080B542F20000C4F202000168AA
:1005100041F010010160032000F07EF80F2000F090
:1005200005F800F02BF8002080BD0000B0B540F2C7
:100530000402C2F2000240F200011278C2F200018D
:100540004FF47A730968B3FBF2F20446B1FBF2F19F
:10055000084600F0EFFA0F2C4FF001050CD858B9FF
:100560004FF0FF3021460022002500F029F840F22C
:100570000800C2F2000004602846B0BD82B041F21B
:100580001800C4F202000168022241F0010101607A
:10059000016801F0010101910199416841F0805128
:1005A0004160406800F08050009000980420C4F240
:1005B0000100016862F31A61016002B07047000037
:1005C00010B54EF60C5CCEF2000CDCF80030C3F334
:1005D000022E8EF00704042C28BF0424BEF103036E
:1005E0004FF0FF3E0EFA04F438BF0023A1439940B8
:1005F0000EFA03F39A43114300F1604200F00F0337
:10060000090102F56442043B6344002848BF03F13A
:100610000C02117010BD00004EF60C51CEF200011C
:100620000A684FF6FF031A4060F30A2242F0806026
:1006300040F0FD7008607047002804BF012070473B
:100640002DE9F04381B042F20008C4F202080446EA
:10065000D8F800000D4600F0070088420CD2D8F808
:10066000000020F007002843C8F80000D8F8000078
:1006700000F00700A8426BD1206841F2040981070D
:10068000C4F2020917D5410705D5D9F8001041F485
:10069000E061C9F80010010705D5D9F8001041F450
:1006A0006051C9F80010D9F80010A26821F0F001DB
:1006B0001143C9F80010C00741D1D8F8000000F07C
:1006C0000700A8420CD9D8F8000020F00700284302
:1006D000C8F80000D8F8000000F00700A84237D1A1
:1006E0002068410707D5D9F80010E26821F4E061DD
:1006F0001143C9F80010000708D5D9F80000216996
:1007000020F4605040EAC100C9F80000D9F8002088
:1007100002F00C00082841F20020C0F27A004DD10E
:1007200040F6F043C2F38341C0F60003595CD203A4
:1007300038D440F60010C0F23D0048433EE0606807
:10074000022809D0012828D159F8041C890307D4AC
:10075000012001B0BDE8F08359F8041C8901F7D5E8
:10076000D9F8001021F003010843C9F80000FFF791
:10077000B5FE064641F28837D9F80000616800F0FE
:100780000C00B0EB810F98D0FFF7A8FE801BB84299
:10079000F2D9032001B0BDE8F08359F8041C8907A1
:1007A000D6D5DDE7D9F8002040F6EE43C2F340424B
:1007B000C0F600039A5C4843B0FBF2F0D9F8001091
:1007C00040F6DE42C1F30311C0F60002515C40F274
:1007D000000220FA01F140F20800C2F200000068B5
:1007E000C2F200021160FFF7A1FE002001B0BDE8D7
:1007F000F0830000002804BF012070472DE9F0417C
:1008000082B00446007841F20006C007C4F2020636
:1008100049D0706800F00C00042809D130688003CA
:1008200041D5606800283ED1012002B0BDE8F081CA
:10083000706800F00C00082802D17068C003EDD485
:1008400065682DB1B5F5A02F0AD0B5F5803F0BD066
:10085000306820F480303060306820F4802006E07A
:10086000306840F480203060306840F48030306080
:10087000FFF734FE002D054612D000BF306880031C
:1008800011D4FFF72BFE401B6428F7D918E100BFF5
:10089000FFF724FE401B64284FF0030000F2D880CD
:1008A00030688003F4D42078800719D5706810F080
:1008B0000C0F07D0706800F00C00082827D1706872
:1008C000C00324D43068800703D52069012840F094
:1008D000A6803068616920F0F80040EAC10030600D
:1008E000207800074ED5A06938B30020C4F242201A
:1008F0000121C0F88014FFF7F1FD0546706A8007FA
:100900002DD4FFF7EBFD401B0228F7D9D8E0206972
:10091000002840F20000C4F2422000F0A88001212B
:100920000160FFF7DBFD054630688007D1D4FFF793
:10093000D5FD401B0228F7D9C2E00020C4F24220B6
:100940000021C0F88014FFF7C9FD0546706A8007D2
:1009500018D5FFF7C3FD401B0228F7D9B0E040F2DD
:100960000000C2F20000006844F6D351C1F26201F7
:10097000A0FB0101480A019000BF0198411E002818
:100980000191F9D12078400717D4E5698DB17068DD
:1009900000F00C00082846D1012D40D07068216A73
:1009A00000F480328A423AD1616A00F470108842C1
:1009B00035D1002002B0BDE8F081F0695FEAC008DF
:1009C00008D4F06940F08050F061F06900F0805088
:1009D0000090009847F20007C4F200073868C0058D
:1009E0000FD4386840F480703860FFF777FD054613
:1009F0003868C00505D4FFF771FD401B6428F7D99E
:100A00005EE0E5681DB1052D42D0012D44D0306A6D
:100A100020F001003062306A20F004003FE0012045
:100A200002B0BDE8F0810027C4F2422700203866FA
:100A3000FFF754FD022D05460ED100BF306880013E
:100A400055D5FFF74BFD401B02284FF00300F5D9A9
:100A500002B0BDE8F08100BF30688001A9D5FFF782
:100A60003DFD401B02284FF00300F5D9F0E70021BF
:100A70000160FFF733FD0546306880077FF530AF32
:100A8000FFF72CFD401B02284FF00300F4D9DFE7ED
:100A9000306A40F004003062306A40F00100306299
:100AA000FFF71CFD002D054641F2883713D000BF2B
:100AB000306A800712D4FFF711FD401BB842F7D906
:100AC000032002B0BDE8F081FFF708FD401BB842EB
:100AD0004FF00300BCD8306A8007F5D4B8F1000F9E
:100AE0003FF553AFF06920F08050F0614DE7206A88
:100AF000B0F5803F05D17168A26821F4003111433F
:100B000071607168626A21F4741111430843706066
:100B100001203866FFF7E2FC044600BF3068800120
:100B20003FF547AFFFF7DAFC001B02284FF0030048
:100B3000F4D98DE7411E0020B0EB116F1CBF0120DE
:100B400070474EF21002CEF2000251604EF6235171
:100B5000CEF20001F0230B70072190601160704706
:100B6000FEE7000010B504460068A188FFF7AAFC64
:100B70000138B0FA80F04009A07110BDC279002A96
:100B800018BF01228379D0F800C08188981AB0FA82
:100B900080F042096046FFF79BBC0000DDF800C012
:100BA00001608280837180F807C07047F0B585B01E
:100BB000002641F21800CDE90366CDE90166C4F2D2
:100BC0000200016840F6000441F020010160016864
:100BD000C4F2010401F02001009100990168002293
:100BE00041F00401016000684FF4007100F004005E
:100BF0000090009820464FF40077FFF769FC4FF40F
:100C0000807001ADCDE90106204629460396FFF725
:100C100059FB0120CDE90206022004902046294616
:100C20000197FFF74FFB05B0F0BD0000FEE70000A5
:100C3000FEE700007047000070470000FFF754BC5B
:100C400070470000FEE7000090B0FFF75BFC06ACC9
:100C500020462821FFF7CEFA0220069001200A90B4
:100C6000102000250B9020460595CDE90355CDE9D0
:100C700001550D95FFF7BEFD18B1EFF3108072B668
:100C8000FEE70F20CDE9010501A80021CDE90355BC
:100C90000595FFF7D1FC20B1EFF3108072B600BFCD
:100CA000FEE7FFF783FF40F27804C2F2000440F64B
:100CB00000010125C4F2010120464FF40072002317
:100CC0000095FFF76BFF40F27005C2F2000500BF10
:100CD0002846FFF747FF2046FFF750FFF8E70000E0
:100CE00000000000000001020304060708090102D9
:100CF00002030405060708090A0B0C0D0E0F10105D
:100D0000200D000800000020100000005001000825
:100D1000300D000810000020780600007001000867
:100D200000127A0001000000100000000000000026
:04000005080000ED02
:00000001FF
